{
  "transactions": [
    {
      "hash": "0xbbbc38964749dc47f7a0e3972d56689b857b723e52b057b63eeade95e7041437",
      "transactionType": "CALL",
      "contractName": "IdentityRegistry",
      "contractAddress": "0x5425ada522eb1ad89a12fba4779f4eaa471ce34c",
      "function": "registerAgent(address,string)",
      "arguments": [
        "0x848c06A32762FF0a61B4123e94d908C24525a0D5",
        "ipfs://bafkreifjkdf5uedpzbmqlluf6wozzaursza4iyfbsshl5go4t2s6vafgqy"
      ],
      "transaction": {
        "from": "0x4bb785a7495b03b3f5d1cd58a604e977ba772873",
        "to": "0x5425ada522eb1ad89a12fba4779f4eaa471ce34c",
        "gas": "0x45d9e141",
        "value": "0x0",
        "input": "0x22b833d8000000000000000000000000848c06a32762ff0a61b4123e94d908c24525a0d500000000000000000000000000000000000000000000000000000000000000400000000000000000000000000000000000000000000000000000000000000042697066733a2f2f6261666b726569666a6b646635756564707a626d716c6c756636776f7a7a617572737a6134697966627373686c35676f3474327336766166677179000000000000000000000000000000000000000000000000000000000000",
        "nonce": "0x32",
        "chainId": "0x138b"
      },
      "additionalContracts": [],
      "isFixedGasLimit": false
    }
  ],
  "receipts": [
    {
      "status": "0x1",
      "cumulativeGasUsed": "0x2c6d2948",
      "logs": [
        {
          "address": "0x5425ada522eb1ad89a12fba4779f4eaa471ce34c",
          "topics": [
            "0xddf252ad1be2c89b69c2b068fc378daa952ba7f163c4a11628f55a4df523b3ef",
            "0x0000000000000000000000000000000000000000000000000000000000000000",
            "0x000000000000000000000000848c06a32762ff0a61b4123e94d908c24525a0d5",
            "0x0000000000000000000000000000000000000000000000000000000000000001"
          ],
          "data": "0x",
          "blockHash": "0xee90896f501e0507d7af6cbfc863c674f986eeeb3f97039c9e61fbf5ad00e1c7",
          "blockNumber": "0x1fc1e9e",
          "blockTimestamp": "0x6963c01d",
          "transactionHash": "0xbbbc38964749dc47f7a0e3972d56689b857b723e52b057b63eeade95e7041437",
          "transactionIndex": "0x1",
          "logIndex": "0x0",
          "removed": false
        },
        {
          "address": "0x5425ada522eb1ad89a12fba4779f4eaa471ce34c",
          "topics": [
            "0x0d063c6022bff16d09991a9f91882ffa112f5fb2529136f65eb4c77bbd047e43",
            "0x0000000000000000000000000000000000000000000000000000000000000001",
            "0x000000000000000000000000848c06a32762ff0a61b4123e94d908c24525a0d5"
          ],
          "data": "0x00000000000000000000000000000000000000000000000000000000000000200000000000000000000000000000000000000000000000000000000000000042697066733a2f2f6261666b726569666a6b646635756564707a626d716c6c756636776f7a7a617572737a6134697966627373686c35676f3474327336766166677179000000000000000000000000000000000000000000000000000000000000",
          "blockHash": "0xee90896f501e0507d7af6cbfc863c674f986eeeb3f97039c9e61fbf5ad00e1c7",
          "blockNumber": "0x1fc1e9e",
          "blockTimestamp": "0x6963c01d",
          "transactionHash": "0xbbbc38964749dc47f7a0e3972d56689b857b723e52b057b63eeade95e7041437",
          "transactionIndex": "0x1",
          "logIndex": "0x1",
          "removed": false
        }
      ],
      "logsBloom": "0x000000000000000000000000000000000000000000000000000000000000000000000000000000000000000000000000000000000000000000000000000500000000008000000000000000880000000000000000000400000000000000000000000000000200000400000000000008000000000000000000000000100000000000000000000000000000000000000000000000000000000000000000000000000000000000000000001000000000000000000000000000000000000000000000000000020000004000000000000100000000000000000000000000000000e0000000000000080000000000000000000000000000000000000000000000000000",
      "type": "0x2",
      "transactionHash": "0xbbbc38964749dc47f7a0e3972d56689b857b723e52b057b63eeade95e7041437",
      "transactionIndex": "0x1",
      "blockHash": "0xee90896f501e0507d7af6cbfc863c674f986eeeb3f97039c9e61fbf5ad00e1c7",
      "blockNumber": "0x1fc1e9e",
      "gasUsed": "0x2c6c7243",
      "effectiveGasPrice": "0x132b3a0",
      "from": "0x4bb785a7495b03b3f5d1cd58a604e977ba772873",
      "to": "0x5425ada522eb1ad89a12fba4779f4eaa471ce34c",
      "contractAddress": null,
      "l1Fee": "0x17118f1b9",
      "l1FeeScalar": "0.01",
      "l1GasPrice": "0xc437",
      "l1GasUsed": "0xf3c",
      "tokenRatio": "0xc59"
    }
  ],
  "libraries": [],
  "pending": [],
  "returns": {},
  "timestamp": 1768144927884,
  "chain": 5003,
  "commit": "f94f005"
}